{
  "_format": "hh3-artifact-1",
  "contractName": "CCIPBridge",
  "sourceName": "contracts/CCIPBridgeContract.sol",
  "abi": [
    {
      "inputs": [
        {
          "internalType": "address",
          "name": "_ccipRouter",
          "type": "address"
        },
        {
          "internalType": "uint64",
          "name": "_remoteChainSelector",
          "type": "uint64"
        },
        {
          "internalType": "address",
          "name": "_surfBoardNFT",
          "type": "address"
        },
        {
          "internalType": "address",
          "name": "_mumuFrensNFT",
          "type": "address"
        },
        {
          "internalType": "address",
          "name": "_feeRecipient",
          "type": "address"
        }
      ],
      "stateMutability": "nonpayable",
      "type": "constructor"
    },
    {
      "inputs": [],
      "name": "EnforcedPause",
      "type": "error"
    },
    {
      "inputs": [],
      "name": "ExpectedPause",
      "type": "error"
    },
    {
      "inputs": [
        {
          "internalType": "address",
          "name": "owner",
          "type": "address"
        }
      ],
      "name": "OwnableInvalidOwner",
      "type": "error"
    },
    {
      "inputs": [
        {
          "internalType": "address",
          "name": "account",
          "type": "address"
        }
      ],
      "name": "OwnableUnauthorizedAccount",
      "type": "error"
    },
    {
      "inputs": [],
      "name": "ReentrancyGuardReentrantCall",
      "type": "error"
    },
    {
      "anonymous": false,
      "inputs": [
        {
          "indexed": false,
          "internalType": "uint256",
          "name": "oldFee",
          "type": "uint256"
        },
        {
          "indexed": false,
          "internalType": "uint256",
          "name": "newFee",
          "type": "uint256"
        }
      ],
      "name": "FeeUpdated",
      "type": "event"
    },
    {
      "anonymous": false,
      "inputs": [
        {
          "indexed": true,
          "internalType": "address",
          "name": "creator",
          "type": "address"
        },
        {
          "indexed": true,
          "internalType": "bytes32",
          "name": "messageId",
          "type": "bytes32"
        },
        {
          "components": [
            {
              "internalType": "address",
              "name": "targetToken",
              "type": "address"
            },
            {
              "internalType": "uint256",
              "name": "collateralAmount",
              "type": "uint256"
            },
            {
              "internalType": "uint256",
              "name": "leverage",
              "type": "uint256"
            },
            {
              "internalType": "bool",
              "name": "isLong",
              "type": "bool"
            },
            {
              "internalType": "uint256",
              "name": "slippageBps",
              "type": "uint256"
            },
            {
              "internalType": "string",
              "name": "platform",
              "type": "string"
            },
            {
              "internalType": "uint256",
              "name": "duration",
              "type": "uint256"
            },
            {
              "internalType": "bytes",
              "name": "platformSpecificData",
              "type": "bytes"
            }
          ],
          "indexed": false,
          "internalType": "struct CCIPBridge.HarpoonParams",
          "name": "params",
          "type": "tuple"
        }
      ],
      "name": "HarpoonRequested",
      "type": "event"
    },
    {
      "anonymous": false,
      "inputs": [
        {
          "indexed": true,
          "internalType": "bytes32",
          "name": "messageId",
          "type": "bytes32"
        },
        {
          "indexed": true,
          "internalType": "address",
          "name": "sender",
          "type": "address"
        },
        {
          "indexed": false,
          "internalType": "string",
          "name": "reason",
          "type": "string"
        }
      ],
      "name": "MessageFailed",
      "type": "event"
    },
    {
      "anonymous": false,
      "inputs": [
        {
          "indexed": true,
          "internalType": "bytes32",
          "name": "messageId",
          "type": "bytes32"
        },
        {
          "indexed": true,
          "internalType": "address",
          "name": "sender",
          "type": "address"
        },
        {
          "indexed": true,
          "internalType": "bytes4",
          "name": "selector",
          "type": "bytes4"
        }
      ],
      "name": "MessageReceived",
      "type": "event"
    },
    {
      "anonymous": false,
      "inputs": [
        {
          "indexed": true,
          "internalType": "bytes32",
          "name": "messageId",
          "type": "bytes32"
        },
        {
          "indexed": false,
          "internalType": "uint256",
          "name": "retryCount",
          "type": "uint256"
        }
      ],
      "name": "MessageRetried",
      "type": "event"
    },
    {
      "anonymous": false,
      "inputs": [
        {
          "indexed": true,
          "internalType": "bytes32",
          "name": "messageId",
          "type": "bytes32"
        },
        {
          "indexed": true,
          "internalType": "address",
          "name": "sender",
          "type": "address"
        },
        {
          "indexed": true,
          "internalType": "uint64",
          "name": "destinationChain",
          "type": "uint64"
        },
        {
          "indexed": false,
          "internalType": "bytes4",
          "name": "selector",
          "type": "bytes4"
        },
        {
          "indexed": false,
          "internalType": "bytes",
          "name": "data",
          "type": "bytes"
        }
      ],
      "name": "MessageSent",
      "type": "event"
    },
    {
      "anonymous": false,
      "inputs": [
        {
          "indexed": true,
          "internalType": "address",
          "name": "user",
          "type": "address"
        },
        {
          "indexed": false,
          "internalType": "uint256[]",
          "name": "tokenIds",
          "type": "uint256[]"
        },
        {
          "indexed": false,
          "internalType": "bool",
          "name": "verified",
          "type": "bool"
        }
      ],
      "name": "NFTVerified",
      "type": "event"
    },
    {
      "anonymous": false,
      "inputs": [
        {
          "indexed": true,
          "internalType": "address",
          "name": "previousOwner",
          "type": "address"
        },
        {
          "indexed": true,
          "internalType": "address",
          "name": "newOwner",
          "type": "address"
        }
      ],
      "name": "OwnershipTransferred",
      "type": "event"
    },
    {
      "anonymous": false,
      "inputs": [
        {
          "indexed": false,
          "internalType": "address",
          "name": "account",
          "type": "address"
        }
      ],
      "name": "Paused",
      "type": "event"
    },
    {
      "anonymous": false,
      "inputs": [
        {
          "indexed": false,
          "internalType": "address",
          "name": "oldContract",
          "type": "address"
        },
        {
          "indexed": false,
          "internalType": "address",
          "name": "newContract",
          "type": "address"
        }
      ],
      "name": "RemoteContractUpdated",
      "type": "event"
    },
    {
      "anonymous": false,
      "inputs": [
        {
          "indexed": false,
          "internalType": "address",
          "name": "account",
          "type": "address"
        }
      ],
      "name": "Unpaused",
      "type": "event"
    },
    {
      "inputs": [],
      "name": "MAX_MESSAGE_SIZE",
      "outputs": [
        {
          "internalType": "uint256",
          "name": "",
          "type": "uint256"
        }
      ],
      "stateMutability": "view",
      "type": "function"
    },
    {
      "inputs": [],
      "name": "MAX_RETRY_ATTEMPTS",
      "outputs": [
        {
          "internalType": "uint256",
          "name": "",
          "type": "uint256"
        }
      ],
      "stateMutability": "view",
      "type": "function"
    },
    {
      "inputs": [],
      "name": "MESSAGE_TIMEOUT",
      "outputs": [
        {
          "internalType": "uint256",
          "name": "",
          "type": "uint256"
        }
      ],
      "stateMutability": "view",
      "type": "function"
    },
    {
      "inputs": [
        {
          "internalType": "bytes",
          "name": "message",
          "type": "bytes"
        }
      ],
      "name": "_processCCIPMessage",
      "outputs": [],
      "stateMutability": "nonpayable",
      "type": "function"
    },
    {
      "inputs": [],
      "name": "baseFee",
      "outputs": [
        {
          "internalType": "uint256",
          "name": "",
          "type": "uint256"
        }
      ],
      "stateMutability": "view",
      "type": "function"
    },
    {
      "inputs": [
        {
          "components": [
            {
              "internalType": "address",
              "name": "targetToken",
              "type": "address"
            },
            {
              "internalType": "uint256",
              "name": "collateralAmount",
              "type": "uint256"
            },
            {
              "internalType": "uint256",
              "name": "leverage",
              "type": "uint256"
            },
            {
              "internalType": "bool",
              "name": "isLong",
              "type": "bool"
            },
            {
              "internalType": "uint256",
              "name": "slippageBps",
              "type": "uint256"
            },
            {
              "internalType": "string",
              "name": "platform",
              "type": "string"
            },
            {
              "internalType": "uint256",
              "name": "duration",
              "type": "uint256"
            },
            {
              "internalType": "bytes",
              "name": "platformSpecificData",
              "type": "bytes"
            }
          ],
          "internalType": "struct CCIPBridge.HarpoonParams",
          "name": "params",
          "type": "tuple"
        }
      ],
      "name": "calculateFee",
      "outputs": [
        {
          "internalType": "uint256",
          "name": "",
          "type": "uint256"
        }
      ],
      "stateMutability": "view",
      "type": "function"
    },
    {
      "inputs": [
        {
          "internalType": "address",
          "name": "user",
          "type": "address"
        }
      ],
      "name": "canSendMessage",
      "outputs": [
        {
          "internalType": "bool",
          "name": "",
          "type": "bool"
        }
      ],
      "stateMutability": "view",
      "type": "function"
    },
    {
      "inputs": [
        {
          "internalType": "bytes",
          "name": "message",
          "type": "bytes"
        }
      ],
      "name": "ccipReceive",
      "outputs": [],
      "stateMutability": "nonpayable",
      "type": "function"
    },
    {
      "inputs": [],
      "name": "ccipRouter",
      "outputs": [
        {
          "internalType": "contract ICCIPRouter",
          "name": "",
          "type": "address"
        }
      ],
      "stateMutability": "view",
      "type": "function"
    },
    {
      "inputs": [],
      "name": "depositForFees",
      "outputs": [],
      "stateMutability": "payable",
      "type": "function"
    },
    {
      "inputs": [],
      "name": "emergencyWithdraw",
      "outputs": [],
      "stateMutability": "nonpayable",
      "type": "function"
    },
    {
      "inputs": [],
      "name": "feeRecipient",
      "outputs": [
        {
          "internalType": "address",
          "name": "",
          "type": "address"
        }
      ],
      "stateMutability": "view",
      "type": "function"
    },
    {
      "inputs": [
        {
          "internalType": "bytes32",
          "name": "messageId",
          "type": "bytes32"
        }
      ],
      "name": "getMessageStatus",
      "outputs": [
        {
          "internalType": "address",
          "name": "sender",
          "type": "address"
        },
        {
          "internalType": "uint256",
          "name": "timestamp",
          "type": "uint256"
        },
        {
          "internalType": "bool",
          "name": "delivered",
          "type": "bool"
        },
        {
          "internalType": "bool",
          "name": "failed",
          "type": "bool"
        },
        {
          "internalType": "uint256",
          "name": "retryCount",
          "type": "uint256"
        }
      ],
      "stateMutability": "view",
      "type": "function"
    },
    {
      "inputs": [
        {
          "internalType": "address",
          "name": "",
          "type": "address"
        }
      ],
      "name": "lastMessageTime",
      "outputs": [
        {
          "internalType": "uint256",
          "name": "",
          "type": "uint256"
        }
      ],
      "stateMutability": "view",
      "type": "function"
    },
    {
      "inputs": [],
      "name": "lpVault",
      "outputs": [
        {
          "internalType": "address",
          "name": "",
          "type": "address"
        }
      ],
      "stateMutability": "view",
      "type": "function"
    },
    {
      "inputs": [],
      "name": "messageRateLimit",
      "outputs": [
        {
          "internalType": "uint256",
          "name": "",
          "type": "uint256"
        }
      ],
      "stateMutability": "view",
      "type": "function"
    },
    {
      "inputs": [
        {
          "internalType": "bytes32",
          "name": "",
          "type": "bytes32"
        }
      ],
      "name": "messageRetries",
      "outputs": [
        {
          "internalType": "uint256",
          "name": "",
          "type": "uint256"
        }
      ],
      "stateMutability": "view",
      "type": "function"
    },
    {
      "inputs": [
        {
          "internalType": "bytes32",
          "name": "",
          "type": "bytes32"
        }
      ],
      "name": "messageStatus",
      "outputs": [
        {
          "internalType": "address",
          "name": "sender",
          "type": "address"
        },
        {
          "internalType": "uint256",
          "name": "timestamp",
          "type": "uint256"
        },
        {
          "internalType": "bool",
          "name": "delivered",
          "type": "bool"
        },
        {
          "internalType": "bool",
          "name": "failed",
          "type": "bool"
        },
        {
          "internalType": "uint256",
          "name": "retryCount",
          "type": "uint256"
        }
      ],
      "stateMutability": "view",
      "type": "function"
    },
    {
      "inputs": [],
      "name": "mumuFrensNFT",
      "outputs": [
        {
          "internalType": "contract IERC721",
          "name": "",
          "type": "address"
        }
      ],
      "stateMutability": "view",
      "type": "function"
    },
    {
      "inputs": [],
      "name": "owner",
      "outputs": [
        {
          "internalType": "address",
          "name": "",
          "type": "address"
        }
      ],
      "stateMutability": "view",
      "type": "function"
    },
    {
      "inputs": [],
      "name": "pause",
      "outputs": [],
      "stateMutability": "nonpayable",
      "type": "function"
    },
    {
      "inputs": [],
      "name": "paused",
      "outputs": [
        {
          "internalType": "bool",
          "name": "",
          "type": "bool"
        }
      ],
      "stateMutability": "view",
      "type": "function"
    },
    {
      "inputs": [],
      "name": "remoteChainSelector",
      "outputs": [
        {
          "internalType": "uint64",
          "name": "",
          "type": "uint64"
        }
      ],
      "stateMutability": "view",
      "type": "function"
    },
    {
      "inputs": [],
      "name": "remoteContract",
      "outputs": [
        {
          "internalType": "address",
          "name": "",
          "type": "address"
        }
      ],
      "stateMutability": "view",
      "type": "function"
    },
    {
      "inputs": [],
      "name": "renounceOwnership",
      "outputs": [],
      "stateMutability": "nonpayable",
      "type": "function"
    },
    {
      "inputs": [
        {
          "components": [
            {
              "internalType": "address",
              "name": "targetToken",
              "type": "address"
            },
            {
              "internalType": "uint256",
              "name": "collateralAmount",
              "type": "uint256"
            },
            {
              "internalType": "uint256",
              "name": "leverage",
              "type": "uint256"
            },
            {
              "internalType": "bool",
              "name": "isLong",
              "type": "bool"
            },
            {
              "internalType": "uint256",
              "name": "slippageBps",
              "type": "uint256"
            },
            {
              "internalType": "string",
              "name": "platform",
              "type": "string"
            },
            {
              "internalType": "uint256",
              "name": "duration",
              "type": "uint256"
            },
            {
              "internalType": "bytes",
              "name": "platformSpecificData",
              "type": "bytes"
            }
          ],
          "internalType": "struct CCIPBridge.HarpoonParams",
          "name": "params",
          "type": "tuple"
        }
      ],
      "name": "requestHarpoonCreation",
      "outputs": [
        {
          "internalType": "bytes32",
          "name": "messageId",
          "type": "bytes32"
        }
      ],
      "stateMutability": "payable",
      "type": "function"
    },
    {
      "inputs": [
        {
          "internalType": "bytes32",
          "name": "messageId",
          "type": "bytes32"
        }
      ],
      "name": "retryMessage",
      "outputs": [],
      "stateMutability": "payable",
      "type": "function"
    },
    {
      "inputs": [
        {
          "internalType": "uint256",
          "name": "_newFee",
          "type": "uint256"
        }
      ],
      "name": "setBaseFee",
      "outputs": [],
      "stateMutability": "nonpayable",
      "type": "function"
    },
    {
      "inputs": [
        {
          "internalType": "address",
          "name": "_newRecipient",
          "type": "address"
        }
      ],
      "name": "setFeeRecipient",
      "outputs": [],
      "stateMutability": "nonpayable",
      "type": "function"
    },
    {
      "inputs": [
        {
          "internalType": "address",
          "name": "_lpVault",
          "type": "address"
        }
      ],
      "name": "setLPVault",
      "outputs": [],
      "stateMutability": "nonpayable",
      "type": "function"
    },
    {
      "inputs": [
        {
          "internalType": "uint256",
          "name": "_newLimit",
          "type": "uint256"
        }
      ],
      "name": "setMessageRateLimit",
      "outputs": [],
      "stateMutability": "nonpayable",
      "type": "function"
    },
    {
      "inputs": [
        {
          "internalType": "address",
          "name": "_remoteContract",
          "type": "address"
        }
      ],
      "name": "setRemoteContract",
      "outputs": [],
      "stateMutability": "nonpayable",
      "type": "function"
    },
    {
      "inputs": [],
      "name": "surfBoardNFT",
      "outputs": [
        {
          "internalType": "contract IERC721",
          "name": "",
          "type": "address"
        }
      ],
      "stateMutability": "view",
      "type": "function"
    },
    {
      "inputs": [
        {
          "internalType": "address",
          "name": "newOwner",
          "type": "address"
        }
      ],
      "name": "transferOwnership",
      "outputs": [],
      "stateMutability": "nonpayable",
      "type": "function"
    },
    {
      "inputs": [],
      "name": "unpause",
      "outputs": [],
      "stateMutability": "nonpayable",
      "type": "function"
    },
    {
      "inputs": [
        {
          "internalType": "address",
          "name": "",
          "type": "address"
        }
      ],
      "name": "userNonces",
      "outputs": [
        {
          "internalType": "uint256",
          "name": "",
          "type": "uint256"
        }
      ],
      "stateMutability": "view",
      "type": "function"
    },
    {
      "stateMutability": "payable",
      "type": "receive"
    }
  ],
  "bytecode": "0x610100604052662386f26fc10000600755603c600a55348015610020575f5ffd5b5060405161294438038061294483398101604081905261003f91610277565b338061006557604051631e4fbdf760e01b81525f60048201526024015b60405180910390fd5b61006e8161020d565b50600180556001600160a01b0385166100c95760405162461bcd60e51b815260206004820152601360248201527f496e76616c6964204343495020726f7574657200000000000000000000000000604482015260640161005c565b6001600160a01b03831661011f5760405162461bcd60e51b815260206004820152601660248201527f496e76616c6964205355524620426f617264204e465400000000000000000000604482015260640161005c565b6001600160a01b0382166101755760405162461bcd60e51b815260206004820152601660248201527f496e76616c6964206d756d752d6672656e73204e465400000000000000000000604482015260640161005c565b6001600160a01b0381166101cb5760405162461bcd60e51b815260206004820152601560248201527f496e76616c69642066656520726563697069656e740000000000000000000000604482015260640161005c565b6001600160a01b039485166080526001600160401b039390931660a05290831660c052821660e052600880546001600160a01b031916919092161790556102e6565b5f80546001600160a01b038381166001600160a01b0319831681178455604051919092169283917f8be0079c531659141344cd1fd0a4f28419497f9722a3daafe3b4186f6b6457e09190a35050565b80516001600160a01b0381168114610272575f5ffd5b919050565b5f5f5f5f5f60a0868803121561028b575f5ffd5b6102948661025c565b60208701519095506001600160401b03811681146102b0575f5ffd5b93506102be6040870161025c565b92506102cc6060870161025c565b91506102da6080870161025c565b90509295509295909350565b60805160a05160c05160e0516125d761036d5f395f81816106b4015281816115e701526116f601525f818161059e0152818161153e015261166801525f818161064a01528181611026015281816119c801528181611ad30152611b4201525f81816101f70152818161076801528181610ff10152818161199b0152611aa401526125d75ff3fe6080604052600436106101a1575f3560e01c80630663b2d1146101ac5780630de22984146101e65780632566fc4a146102195780632f7801f41461023c5780632f867367146102675780633c6cf473146102865780633f4ba83a146103155780633f8b12c01461032b5780634686069814610340578063469048401461035f5780635075a9d41461037e5780635bb09086146104005780635c975abb1461041f578063669a5937146104425780636ba7e03b146104555780636c8d9e37146104805780636ef25c3a1461049f578063715018a6146104b4578063727f803f146104c8578063808db17a146104e757806381564ecd146105065780638456cb59146105255780638da5cb5b1461053957806397d340f51461054d578063b410393b14610562578063b7c8a69d1461058d578063c0afb3f4146105c0578063c78afa76146105df578063cd3e1266146105fe578063db2e21bc14610611578063e29b352114610625578063e6d1628a14610639578063e74b981b14610684578063e7b6ff22146106a3578063ed33d3bd146106d6578063f2fde38b146106de575f5ffd5b366101a857005b5f5ffd5b3480156101b7575f5ffd5b506002546101d09061010090046001600160a01b031681565b6040516101dd9190611c9c565b60405180910390f35b3480156101f1575f5ffd5b506101d07f000000000000000000000000000000000000000000000000000000000000000081565b348015610224575f5ffd5b5061022e610e1081565b6040519081526020016101dd565b348015610247575f5ffd5b5061022e610256366004611ccf565b60056020525f908152604090205481565b348015610272575f5ffd5b506003546101d0906001600160a01b031681565b348015610291575f5ffd5b506102dd6102a0366004611cf1565b60046020525f908152604090208054600182015460028301546003909301546001600160a01b0390921692909160ff808316926101009004169085565b604080516001600160a01b0390961686526020860194909452911515928401929092529015156060830152608082015260a0016101dd565b348015610320575f5ffd5b506103296106fd565b005b348015610336575f5ffd5b5061022e600a5481565b34801561034b575f5ffd5b5061032961035a366004611cf1565b61070f565b34801561036a575f5ffd5b506008546101d0906001600160a01b031681565b348015610389575f5ffd5b506102dd610398366004611cf1565b5f90815260046020908152604091829020825160a08101845281546001600160a01b03168082526001830154938201849052600283015460ff808216151596840187905261010090910416151560608301819052600390930154608090920182905294929392565b34801561040b575f5ffd5b5061032961041a366004611d08565b61075d565b34801561042a575f5ffd5b5060025460ff165b60405190151581526020016101dd565b61022e610450366004611d74565b6108ec565b348015610460575f5ffd5b5061022e61046f366004611cf1565b60066020525f908152604090205481565b34801561048b575f5ffd5b5061032961049a366004611ccf565b610cdc565b3480156104aa575f5ffd5b5061022e60075481565b3480156104bf575f5ffd5b50610329610d06565b3480156104d3575f5ffd5b506103296104e2366004611d08565b610d17565b3480156104f2575f5ffd5b5061022e610501366004611d74565b610ea0565b348015610511575f5ffd5b50610329610520366004611cf1565b6110a5565b348015610530575f5ffd5b506103296110b2565b348015610544575f5ffd5b506101d06110c2565b348015610558575f5ffd5b5061022e61271081565b34801561056d575f5ffd5b5061022e61057c366004611ccf565b60096020525f908152604090205481565b348015610598575f5ffd5b506101d07f000000000000000000000000000000000000000000000000000000000000000081565b3480156105cb575f5ffd5b506103296105da366004611ccf565b6110d0565b3480156105ea575f5ffd5b506104326105f9366004611ccf565b61113c565b61032961060c366004611cf1565b61116b565b34801561061c575f5ffd5b50610329611373565b348015610630575f5ffd5b5061022e600381565b348015610644575f5ffd5b5061066c7f000000000000000000000000000000000000000000000000000000000000000081565b6040516001600160401b0390911681526020016101dd565b34801561068f575f5ffd5b5061032961069e366004611ccf565b6113b8565b3480156106ae575f5ffd5b506101d07f000000000000000000000000000000000000000000000000000000000000000081565b61032961142c565b3480156106e9575f5ffd5b506103296106f8366004611ccf565b611434565b61070561146e565b61070d6114a0565b565b61071761146e565b600780549082905560408051828152602081018490527f528d9479e9f9889a87a3c30c7f7ba537e5e59c4c85a37733b16e57c62df6130291015b60405180910390a15050565b336001600160a01b037f000000000000000000000000000000000000000000000000000000000000000016146107cc5760405162461bcd60e51b815260206004820152600f60248201526e2737ba1021a1a4a8103937baba32b960891b60448201526064015b60405180910390fd5b60405163727f803f60e01b8152309063727f803f906107f19085908590600401611dd3565b5f604051808303815f87803b158015610808575f5ffd5b505af1925050508015610819575060015b6108e857610825611dee565b806308c379a0036108875750610839611e6c565b806108445750610889565b60405133906108569085908590611eee565b60405180910390205f5160206125825f395f51905f528360405161087a9190611f2b565b60405180910390a3505050565b505b604051339061089b9084908490611eee565b60405180910390205f5160206125825f395f51905f526040516108df906020808252600d908201526c2ab735b737bbb71032b93937b960991b604082015260600190565b60405180910390a35b5050565b5f6108f56114ec565b6108fd611516565b336109078161153a565b6109455760405162461bcd60e51b815260206004820152600f60248201526e139bc8195b1a59da589b1948139195608a1b60448201526064016107c3565b600a54335f81815260096020526040902054909161096291611f51565b4210156109a75760405162461bcd60e51b815260206004820152601360248201527214985d19481b1a5b5a5d08195e18d959591959606a1b60448201526064016107c3565b6001600160a01b038082165f908152600960205260409020429055600254610100900416610a115760405162461bcd60e51b815260206004820152601760248201527614995b5bdd194818dbdb9d1c9858dd081b9bdd081cd95d604a1b60448201526064016107c3565b600754341015610a335760405162461bcd60e51b81526004016107c390611f64565b5f610a3d33611663565b90505f815111610a7f5760405162461bcd60e51b815260206004820152600d60248201526c139bc81391951cc8199bdd5b99609a1b60448201526064016107c3565b5f335f90815260056020526040812080548290610a9b90611f8e565b91905081905590505f6040518060800160405280336001600160a01b0316815260200189610ac89061203d565b81526020018481526020018581525090505f6040518060c00160405280336001600160a01b031681526020017fde4f681eec968484a621c07f0133ceacaa386787ea4036a439171389ec3c4ed86001600160e01b03191681526020018a33604051602001610b379291906121e0565b6040516020818303038152906040528152602001848152602001428152602001610e1042610b659190611f51565b90529050610b7281611892565b6040805160a0810182523381524260208083019182525f8385018181526060850182815260808601838152888452600490945295909120935184546001600160a01b03919091166001600160a01b0319909116178455915160018401559051600283018054945115156101000261ff00199215159290921661ffff199095169490941717909255905160039091015597503415610c41576008546040516001600160a01b03909116903480156108fc02915f818181858888f19350505050158015610c3f573d5f5f3e3d5ffd5b505b87336001600160a01b03167f034d0b5aa84b603915955945f6c263bd0f8220361adbf295d9103ed104a519908b604051610c7b9190612209565b60405180910390a3336001600160a01b03167f6686e8100676f8982a411af56efe1180befd89a4ff685a66406ab179f9a632d4866001604051610cbf92919061221b565b60405180910390a250505050505050610cd760018055565b919050565b610ce461146e565b600380546001600160a01b0319166001600160a01b0392909216919091179055565b610d0e61146e565b61070d5f611bc1565b333014610d525760405162461bcd60e51b815260206004820152600960248201526827b7363c9039b2b63360b91b60448201526064016107c3565b5f610d5f82840184612281565b90505f8383604051610d72929190611eee565b604051809103902090508160a00151421115610dc25760405162461bcd60e51b815260206004820152600f60248201526e13595cdcd859d948195e1c1a5c9959608a1b60448201526064016107c3565b60208201516001600160e01b03191663a22aca8160e01b01610e05575f5f5f8460400151806020019051810190610df99190612333565b50610e51945050505050565b60208201516001600160e01b03191663ee72c78d60e01b01610e51575f5f5f8460400151806020019051810190610e3c9190612374565b925092509250610e4d838383611c10565b5050505b81602001516001600160e01b031916825f01516001600160a01b0316827fb8b89d5f557db2e53f3ad35bb9bba888e3d588d62d35eeffb3506bc0fbb027b660405160405180910390a450505050565b6002545f9061010090046001600160a01b0316610ebf57505060075490565b6040805160c08101825233808252636f27b40f60e11b60208084019190915283515f94840192610ef1928892016121e0565b60408051601f19818403018152918152908252335f9081526005602090815291902054910190610f22906001611f51565b8152602001428152602001610e1042610f3b9190611f51565b81525090505f81604051602001610f5291906123a8565b60408051808303601f1901815260c083019091526002549092505f91908190610f8c9061010090046001600160a01b031660e08301611c9c565b60408051808303601f19018152918152908252602080830186905281515f8082528183018452848401919091528251818152808301845260608501526080840181905282519182018352815260a0909201919091525163876608fd60e01b81529091507f00000000000000000000000000000000000000000000000000000000000000006001600160a01b03169063876608fd90611050907f000000000000000000000000000000000000000000000000000000000000000090859060040161244f565b602060405180830381865afa15801561106b573d5f5f3e3d5ffd5b505050506040513d601f19601f8201168201806040525081019061108f9190612535565b60075461109c9190611f51565b95945050505050565b6110ad61146e565b600a55565b6110ba61146e565b61070d611c2f565b5f546001600160a01b031690565b6110d861146e565b600280546001600160a01b03838116610100818102610100600160a81b031985161790945560408051949093049091168084526020840191909152917fb97e07a26609fde741c8071f073f13084759a9cc7a6676df538765e61601de069101610751565b600a546001600160a01b0382165f90815260096020526040812054909161116291611f51565b42101592915050565b6111736114ec565b5f81815260046020526040902080546001600160a01b031633146111ce5760405162461bcd60e51b81526020600482015260126024820152712737ba1036b2b9b9b0b3b29039b2b73232b960711b60448201526064016107c3565b6002810154610100900460ff16806112065750600281015460ff161580156112065750610e1081600101546112039190611f51565b42115b6112475760405162461bcd60e51b815260206004820152601260248201527113595cdcd859d9481b9bdd0819985a5b195960721b60448201526064016107c3565b60038160030154106112925760405162461bcd60e51b815260206004820152601460248201527313585e081c995d1c9a595cc8195e18d95959195960621b60448201526064016107c3565b6007543410156112b45760405162461bcd60e51b81526004016107c390611f64565b600381018054905f6112c583611f8e565b909155505060028101805461ff001916905560038101545f838152600660205260409020553415611328576008546040516001600160a01b03909116903480156108fc02915f818181858888f19350505050158015611326573d5f5f3e3d5ffd5b505b817f22166fa5ceb0560be4971fa27f06d2ee7b4a21966e59f58705ec8d7eca9c6193826003015460405161135e91815260200190565b60405180910390a25061137060018055565b50565b61137b61146e565b6113836110c2565b6001600160a01b03166108fc4790811502906040515f60405180830381858888f19350505050158015611370573d5f5f3e3d5ffd5b6113c061146e565b6001600160a01b03811661140a5760405162461bcd60e51b8152602060048201526011602482015270125b9d985b1a59081c9958da5c1a595b9d607a1b60448201526064016107c3565b600880546001600160a01b0319166001600160a01b0392909216919091179055565b61070d61146e565b61143c61146e565b6001600160a01b038116611465575f604051631e4fbdf760e01b81526004016107c39190611c9c565b61137081611bc1565b336114776110c2565b6001600160a01b03161461070d573360405163118cdaa760e01b81526004016107c39190611c9c565b6114a8611c6c565b6002805460ff191690557f5db9ee0a495bf2e6ff9c91a7834c1ba4fdd244a5e8aa4e537bd38aeae4b073aa335b6040516114e29190611c9c565b60405180910390a1565b60026001540361150f57604051633ee5aeb560e01b815260040160405180910390fd5b6002600155565b60025460ff161561070d5760405163d93c066560e01b815260040160405180910390fd5b5f5f7f00000000000000000000000000000000000000000000000000000000000000006001600160a01b03166370a08231846040518263ffffffff1660e01b81526004016115889190611c9c565b602060405180830381865afa1580156115a3573d5f5f3e3d5ffd5b505050506040513d601f19601f820116820180604052508101906115c79190612535565b118061165d57506040516370a0823160e01b81525f906001600160a01b037f000000000000000000000000000000000000000000000000000000000000000016906370a082319061161c908690600401611c9c565b602060405180830381865afa158015611637573d5f5f3e3d5ffd5b505050506040513d601f19601f8201168201806040525081019061165b9190612535565b115b92915050565b60605f7f00000000000000000000000000000000000000000000000000000000000000006001600160a01b03166370a08231846040518263ffffffff1660e01b81526004016116b29190611c9c565b602060405180830381865afa1580156116cd573d5f5f3e3d5ffd5b505050506040513d601f19601f820116820180604052508101906116f19190612535565b90505f7f00000000000000000000000000000000000000000000000000000000000000006001600160a01b03166370a08231856040518263ffffffff1660e01b81526004016117409190611c9c565b602060405180830381865afa15801561175b573d5f5f3e3d5ffd5b505050506040513d601f19601f8201168201806040525081019061177f9190612535565b90505f61178c8284611f51565b90505f816001600160401b038111156117a7576117a7611e07565b6040519080825280602002602001820160405280156117d0578160200160208202803683370190505b5090505f805b85811080156117e457508382105b1561182757808383815181106117fc576117fc61254c565b60209081029190910101528161181181611f8e565b925050808061181f90611f8e565b9150506117d6565b505f5b848110801561183857508382105b156118865761184981612710611f51565b83838151811061185b5761185b61254c565b60209081029190910101528161187081611f8e565b925050808061187e90611f8e565b91505061182a565b50909695505050505050565b5f5f826040516020016118a591906123a8565b6040516020818303038152906040529050612710815111156118fd5760405162461bcd60e51b81526020600482015260116024820152704d65737361676520746f6f206c6172676560781b60448201526064016107c3565b5f6040518060c00160405280600260019054906101000a90046001600160a01b031660405160200161192f9190611c9c565b60408051808303601f19018152918152908252602080830186905281515f808252818301845284840191909152825181815280830184526060850152608084018190528251918201835280825260a0909301525163876608fd60e01b8152919250906001600160a01b037f0000000000000000000000000000000000000000000000000000000000000000169063876608fd906119f2907f000000000000000000000000000000000000000000000000000000000000000090869060040161244f565b602060405180830381865afa158015611a0d573d5f5f3e3d5ffd5b505050506040513d601f19601f82011682018060405250810190611a319190612535565b905080471015611a8d5760405162461bcd60e51b815260206004820152602160248201527f496e73756666696369656e742062616c616e636520666f7220434349502066656044820152606560f81b60648201526084016107c3565b604051632e20842360e11b81526001600160a01b037f00000000000000000000000000000000000000000000000000000000000000001690635c410846908390611afd907f000000000000000000000000000000000000000000000000000000000000000090879060040161244f565b60206040518083038185885af1158015611b19573d5f5f3e3d5ffd5b50505050506040513d601f19601f82011682018060405250810190611b3e9190612535565b93507f00000000000000000000000000000000000000000000000000000000000000006001600160401b0316855f01516001600160a01b0316857fdfd38a7edf22f50d1bb30e0e9e1ef11a6ff6ede74823814d750fb044518fa5e688602001518960400151604051611bb1929190612560565b60405180910390a4505050919050565b5f80546001600160a01b038381166001600160a01b0319831681178455604051919092169283917f8be0079c531659141344cd1fd0a4f28419497f9722a3daafe3b4186f6b6457e09190a35050565b6003546001600160a01b031615801590611c2957505f81135b50505050565b611c37611516565b6002805460ff191660011790557f62e78cea01bee320cd4e420270b5ea74000d11b0c9f74754ebdbfc544b05a2586114d53390565b60025460ff1661070d57604051638dfc202b60e01b815260040160405180910390fd5b6001600160a01b03169052565b6001600160a01b0391909116815260200190565b6001600160a01b0381168114611370575f5ffd5b8035610cd781611cb0565b5f60208284031215611cdf575f5ffd5b8135611cea81611cb0565b9392505050565b5f60208284031215611d01575f5ffd5b5035919050565b5f5f60208385031215611d19575f5ffd5b82356001600160401b03811115611d2e575f5ffd5b8301601f81018513611d3e575f5ffd5b80356001600160401b03811115611d53575f5ffd5b856020828401011115611d64575f5ffd5b6020919091019590945092505050565b5f60208284031215611d84575f5ffd5b81356001600160401b03811115611d99575f5ffd5b82016101008185031215611cea575f5ffd5b81835281816020850137505f828201602090810191909152601f909101601f19169091010190565b602081525f611de6602083018486611dab565b949350505050565b5f60033d1115611e045760045f5f3e505f5160e01c5b90565b634e487b7160e01b5f52604160045260245ffd5b60c081016001600160401b0381118282101715611e3a57611e3a611e07565b60405250565b601f8201601f191681016001600160401b0381118282101715611e6557611e65611e07565b6040525050565b5f60443d1015611e795790565b6040513d600319016004823e80516001600160401b0381113d60248301111715611ea257505090565b81810180516001600160401b03811115611ebd575050505090565b3d8401600319018282016020011115611ed7575050505090565b611ee660208285010185611e40565b509392505050565b818382375f9101908152919050565b5f81518084528060208401602086015e5f602082860101526020601f19601f83011685010191505092915050565b602081525f611cea6020830184611efd565b634e487b7160e01b5f52601160045260245ffd5b8082018082111561165d5761165d611f3d565b60208082526010908201526f496e73756666696369656e742066656560801b604082015260600190565b5f60018201611f9f57611f9f611f3d565b5060010190565b604051611e0461010082611e40565b80358015158114610cd7575f5ffd5b5f82601f830112611fd3575f5ffd5b8135602083015f806001600160401b03841115611ff257611ff2611e07565b50604051601f8401601f19166020019061200c8282611e40565b809250848152878585011115612020575f5ffd5b848460208301375f60208683010152809550505050505092915050565b5f610100823603121561204e575f5ffd5b612056611fa6565b61205f83611cc4565b8152602083810135908201526040808401359082015261208160608401611fb5565b60608201526080838101359082015260a08301356001600160401b038111156120a8575f5ffd5b6120b436828601611fc4565b60a08301525060c0838101359082015260e08301356001600160401b038111156120dc575f5ffd5b6120e836828601611fc4565b60e08301525092915050565b5f5f8335601e19843603018112612109575f5ffd5b83016020810192503590506001600160401b03811115612127575f5ffd5b803603821315612135575f5ffd5b9250929050565b5f813561214881611cb0565b6121528482611c8f565b50602082810135908401526040808301359084015261217360608301611fb5565b151560608401526080828101359084015261219160a08301836120f4565b61010060a08601526121a861010086018284611dab565b60c0858101359087015291506121c3905060e08401846120f4565b85830360e08701526121d6838284611dab565b9695505050505050565b604081525f6121f2604083018561213c565b905060018060a01b03831660208301529392505050565b602081525f611cea602083018461213c565b604080825283519082018190525f9060208501906060840190835b81811015612254578351835260209384019390920191600101612236565b5050809250505082151560208301529392505050565b80356001600160e01b031981168114610cd7575f5ffd5b5f60208284031215612291575f5ffd5b81356001600160401b038111156122a6575f5ffd5b820160c081850312156122b7575f5ffd5b6040516122c381611e1b565b81356122ce81611cb0565b81526122dc6020830161226a565b602082015260408201356001600160401b038111156122f9575f5ffd5b61230586828501611fc4565b604083015250606082810135908201526080808301359082015260a091820135918101919091529392505050565b5f5f5f60608486031215612345575f5ffd5b835161235081611cb0565b602085015190935061236181611cb0565b6040949094015192959394509192915050565b5f5f5f60608486031215612386575f5ffd5b835161239181611cb0565b602085015160409095015190969495509392505050565b602080825282516001600160a01b0316828201528201516001600160e01b03191660408083019190915282015160c060608301525f906123eb60e0840182611efd565b905060608401516080840152608084015160a084015260a084015160c08401528091505092915050565b5f8151808452602084019350602083015f5b82811015612445578151865260209586019590910190600101612427565b5093949350505050565b60018060401b0383168152604060208201525f825160c06040840152612479610100840182611efd565b90506020840151603f198483030160608501526124968282611efd565b6040860151858203603f190160808701528051808352602091820194505f93509101905b808310156124e55783516001600160a01b0316825260209384019360019390930192909101906124ba565b506060860151858203603f190160a087015292506125038184612415565b92505050608084015161251960c0850182611c8f565b5060a0840151838203603f190160e08501526121d68282611efd565b5f60208284031215612545575f5ffd5b5051919050565b634e487b7160e01b5f52603260045260245ffd5b63ffffffff60e01b83168152604060208201525f611de66040830184611efd56fe6614259a120a595c190314d103ed3b6db314d249be2b226a427ae9ea9bacf332a2646970667358221220c703c3f016fcf6aaffecc63f185f4aa6f1c9547150c373057bb95211470782c164736f6c634300081c0033",
  "linkReferences": {},
  "deployedLinkReferences": {},
  "immutableReferences": {
    "552": [
      {
        "length": 32,
        "start": 503
      },
      {
        "length": 32,
        "start": 1896
      },
      {
        "length": 32,
        "start": 4081
      },
      {
        "length": 32,
        "start": 6555
      },
      {
        "length": 32,
        "start": 6820
      }
    ],
    "554": [
      {
        "length": 32,
        "start": 1610
      },
      {
        "length": 32,
        "start": 4134
      },
      {
        "length": 32,
        "start": 6600
      },
      {
        "length": 32,
        "start": 6867
      },
      {
        "length": 32,
        "start": 6978
      }
    ],
    "559": [
      {
        "length": 32,
        "start": 1438
      },
      {
        "length": 32,
        "start": 5438
      },
      {
        "length": 32,
        "start": 5736
      }
    ],
    "562": [
      {
        "length": 32,
        "start": 1716
      },
      {
        "length": 32,
        "start": 5607
      },
      {
        "length": 32,
        "start": 5878
      }
    ]
  },
  "inputSourceName": "project/contracts/CCIPBridgeContract.sol",
  "buildInfoId": "solc-0_8_28-91f9503d05346437fe3b4e3400fef9334c66bca6"
}